:020000022000DC
:1070000000F003206D7302005573020057730200F5
:10701000597302005B7302005D7302000000000000
:107020000000000000000000000000005F7302008C
:1070300061730200000000006373020065730200C8
:1070400067730200677302006773020067730200D0
:107050006773020067730200ED9B02006773020012
:1070600067730200677302003192030067730200C6
:1070700067730200677302006773020067730200A0
:10708000677302004120040009E9020067730200EF
:10709000A520040067730200F9BA030067730200B9
:1070A0006773020067730200677302006773020070
:1070B0006773020067730200000000000000000018
:1070C0006773020067730200677302006773020050
:1070D0006773020067730200677302006773020040
:1070E000677302006773020067730200000000000C
:1070F00000000000677302000000000067730200D8
:10710000000000000000000000000000000000007F
:10711000000000000000000000000000000000006F
:10712000000000000000000000000000000000005F
:10713000000000000000000000000000000000004F
:10714000000000000000000000000000000000003F
:10715000000000000000000000000000000000002F
:10716000000000000000000000000000000000001F
:10717000000000000000000000000000000000000F
:1071800000000000000000000000000000000000FF
:1071900000000000000000000000000000000000EF
:1071A00000000000000000000000000000000000DF
:1071B00000000000000000000000000000000000CF
:1071C00000000000000000000000000000000000BF
:1071D00000000000000000000000000000000000AF
:1071E000000000000000000000000000000000009F
:1071F000000000000000000000000000000000008F
:10720000344935480A1A02D0072291438D46334942
:1072100033480A1A06D00722914381F309880222D3
:1072200082F314882F483049304A00F042F8304841
:107230003049314A00F03DF830483149314A00F0D8
:1072400038F831483149324A00F033F83148324990
:10725000324A00F02EF832483249334A00F029F819
:1072600032483349334A00F024F833483349002286
:1072700000F02AF832483349002200F025F832485D
:107280003249091A082902DB0022026041601F48C6
:107290001F49884205D00268043003B4904703BCFC
:1072A000F7E700208646EC4600200021284A904758
:1072B000FEE7884207D0521A05D0037801300B70E0
:1072C0000131013AF9D17047884202D00270013091
:1072D000FAE7704700F0032000E8032000F00320E5
:1072E00000F00320A8570400002E00206C2E002080
:1072F000A0730200A0730200BC250400A85704007C
:10730000002E0020002E0020F4280400F4280400A1
:10731000F4280400F4280400F4280400F4280400ED
:10732000F4280400F4280400A657040014580400AC
:107330006C2E00206C2E00206C2E0020485B00205C
:10734000485B0020485B0020485B0020485F00202D
:1073500001810200FEE7FEE7FEE7FEE7FEE7FEE74B
:10736000FEE7FEE7FEE7FEE700F002B8FFF7FCBF2E
:1073700008484FF00701884385460748804707487B
:10738000016841F470010160BFF34F8FBFF36F8F4D
:10739000FFF736BF00F00320ADBB030088ED00E02F
:1073A00041DF70470B781BBB124B1B6813F4804FF7
:1073B0001ED0114B1B68032B1ADD10B584B00F4B88
:1073C000D3F804354A685088097B526914786CB93F
:1073D00092F90D20039202910190094A0092C12274
:1073E0000849042008F0D0FA04B010BD0022F1E7EB
:1073F000704700BF242E0020202E002000100140E6
:10740000642A04005A2A040030B5C7B0724B1B68C6
:1074100013F4804F03D0714B1B68032B2FDC6E4B92
:107420001B6813F4804F03D06C4B1B68032B32DCBA
:10743000694B1B6813F4804F03D0684B1B68032B08
:107440003ADC654B1B6813F4804F03D0634B1B6819
:10745000032B5DDC604B1B6813F4804F03D05F4B44
:107460001B68032B7FDC5C4B1B6813F4804F04D03C
:107470005A4B1B68032B00F3A28047B030BD584B1A
:10748000D3F80435574A009240F2DB1256490420E3
:1074900008F07AFAC3E7524BD3F80435534A11780F
:1074A000527802920191524A009240F2DD124E4906
:1074B000042008F069FABBE700230F2B12D84B4ACF
:1074C0001A4492F830204B490C6810095900255C89
:1074D00005A800F8135002F00F020131A25C4254DB
:1074E0000133EAE705AA00238DF8343003F1804325
:1074F00003F58833D3F8043502923F4A01923F4A9C
:1075000000924FF4EF723849042008F03DFA98E7F2
:1075100000230F2B11D8354A1A44127C35490C68C8
:1075200010095900255C05A800F8135002F00F025D
:107530000131A25C42540133EBE705AA00238DF828
:10754000343003F1804303F58833D3F804350292D5
:107550002B4A0192294A009240F2DF12224904206C
:1075600008F012FA76E700230F2B12D81F4A1A44AC
:1075700092F820201F490C6810095900255C05A8C5
:1075800000F8135002F00F020131A25C42540133A3
:10759000EAE705AA00238DF8343003F1804303F5B0
:1075A0008833D3F804350292164A0192134A0092A6
:1075B0004FF4F0720C49042008F0E6F953E7084B49
:1075C000D3F80435104A009240F2E1120649042033
:1075D00008F0DAF951E700BF242E0020202E002009
:1075E000001001404C2B04005A2A0400882E002071
:1075F000682B0400282E0020982B0400A42B0400E4
:10760000AC2B0400B82B0400C42B040000B585B0DB
:107610000390124B1B6813F4804F03D0104B1B6870
:10762000042B0BDCBDF80E30012B12D140220021BF
:107630000C481AF037FF05B05DF804FB0A4BD3F88D
:1076400004350A4A009269220949052008F09CF98C
:10765000E8E7784602F012FCE8E700BF242E00209D
:10766000202E0020882E002000100140F82E04005B
:107670005A2A040000B583B00378142B1BD01D2BAD
:107680000AD11C4B1B6813F4804F03D01A4B1B68A4
:10769000042B04DCFFF7B8FE03B05DF804FB174BC6
:1076A000D3F80435164A009240F21B121549052002
:1076B00008F06AF9EEE7C388102BEDD10D4B1B687B
:1076C00013F4804F03D00C4B1B68032B05DC4022C6
:1076D00000210D481AF0E6FEDEE7084BD3F804352A
:1076E0000A4A009240F225120649042008F04CF99B
:1076F000EDE700BF242E0020202E002000100140C6
:107700009C2A04005A2A0400882E0020BC2A040067
:10771000F0B585B003900C46154B1B6813F4804FF1
:1077200003D0144B1B68042B12DCBDF80E30012B68
:1077300019D1114E06F1400735460FCD206061602A
:10774000A260E3602E461034BD42F5D105B0F0BD15
:107750000A4BD3F804350A4A0092602209490520F1
:1077600008F012F9E1E7784602F088FBE1E700BF94
:10777000242E0020202E0020882E00200010014002
:10778000142F04005A2A0400F0B585B003900E4669
:10779000154B1B6813F4804F03D0144B1B68042B4C
:1077A00013DCBDF80E30012B1AD13446104F403691
:1077B0003D4620686168A268E3680FC510342F4613
:1077C000B442F5D1002005B0F0BD0A4BD3F8043522
:1077D000094A009255220949052008F0D5F8E0E74A
:1077E000784602F04BFBE0E7242E0020202E0020FC
:1077F000882E0020001001402C2F04005A2A04007B
:1078000000B583B0194B1B6813F4804F03D0184B9D
:107810001B68032B12DC174B4FF6FF725A809A80BD
:107820001A80154816F06AFDA0B9144A00211448C0
:107830001AF01EF9A0B903B05DF804FB114BD3F8A0
:107840000435114A009240F285121049042008F0D4
:107850009BF8E0E70E4A40F28D1114F09FFAE4E73E
:107860000B4A4FF4C77114F099FAE4E7242E002074
:10787000202E00206C2E002095780200A5730200B7
:10788000742E002000100140BC2E04005A2A04006F
:10789000F429040070B582B004460D4616460D4B1F
:1078A0001B6813F4804F03D00B4B1B68032B06DCC3
:1078B00032462946204601F0E3FE02B070BD074B78
:1078C000D3F80435064A0092D6220649042008F06F
:1078D0005BF8EDE7242E0020202E00200010014050
:1078E000182904005A2A040000B583B0234B1B68F2
:1078F00013F4804F03D0224B1B68032B1ADC1F4B61
:107900001B6813F4804F03D01D4B1B68032B1FDC37
:107910001A4B1B6813F4804F03D0194B1B68032BC1
:1079200021DC0021174B19700E2002F0C3F803B0C0
:107930005DF804FB144BD3F80435144A52780192D5
:10794000134A009298221349042008F01DF8D6E744
:107950000D4BD3F80435104A009299220D490420AA
:1079600008F012F8D4E7084BD3F804350B4A00921C
:107970009A220849042008F007F8D2E7242E0020B4
:10798000202E0020842E002000100140882E002090
:10799000302904005A2A0400542904007C290400D8
:1079A00000B583B00E4B1B6813F4804F03D00D4B12
:1079B0001B68032B08DC00210B4B19700D2002F013
:1079C00079F803B05DF804FB084BD3F80435084A96
:1079D0000092AB220749042007F0D6FFEBE700BF77
:1079E000242E0020202E0020842E00200010014094
:1079F000002B04005A2A040000B583B00F4B1B680B
:107A000013F4804F03D00E4B1B68032B0ADC00F0ED
:107A1000CBFC00F071FC01210D2002F04BF803B00B
:107A20005DF804FB074BD3F80435074A0092DF22C8
:107A30000649042007F0A8FFE9E700BF242E002034
:107A4000202E002000100140442F04005A2A040078
:107A500000B583B0254B1B78002B31D1244B5A78CD
:107A60001B789A4229D2234B1B6813F4804F03D012
:107A7000214B1B68032B14DC1D48C36801930023B2
:107A8000009300F120020221408801F051FE012103
:107A90000E2002F00FF8154B01221A7003B05DF8AA
:107AA00004FB164BD3F80435154A00924FF480724C
:107AB0001449042007F068FFDEE7FFF79DFFEAE7BF
:107AC0000C4B1B6813F4804FE8D00B4B1B68032B47
:107AD000E4DD0A4BD3F804350B4A00924FF4887268
:107AE0000849042007F050FFD8E700BF842E00208B
:107AF000882E0020242E0020202E0020001001407F
:107B00001C2C04005A2A0400502C040008B5094B10
:107B10001B7823B9084B5A781B789A4200D308BDCA
:107B2000013B054A1370FFF767FF024B01221A70F1
:107B3000F5E700BF842E0020882E002008B500F055
:107B40000DFC024B18680AF00AFD08BD102904005C
:107B500000B583B00F4B1B6813F4804F03D00E4B5E
:107B60001B68032B0ADC0322C8214FF4F03001F01C
:107B7000BBFF0BF0C1FB03B05DF804FB074BD3F870
:107B80000435074A009240F23D120649042007F0EE
:107B9000FBFEE8E7242E0020202E002000100140EC
:107BA000DC2E04005A2A040010B582B0441C214B7C
:107BB0001B6813F4804F03D01F4B1B68032B1ADC88
:107BC000022C29D0042C2AD0012C21D0194B1B685F
:107BD00013F4804F1ED0184B1B68032B1ADD174B74
:107BE000D3F80435164A009240F271121549042068
:107BF00007F0CAFE0EE0114BD3F804350194124A87
:107C0000009240F251120F49042007F0BDFED7E761
:107C1000FFF71EFF02B010BDFFF778FFFAE70BF089
:107C200027FB0028F6D0FFF789FF0BF017FBFFF7C3
:107C30008FFFEFE7242E0020202E002000100140AF
:107C4000B02C04005A2A0400082C040000B583B0AC
:107C50003138032814D90D4B1B6813F4804F11D011
:107C60000B4B1B68032B0DDD0A4BD3F804350A4A76
:107C7000009240F27F120949042007F085FE01E0DE
:107C8000FFF792FF03B05DF804FB00BF242E002035
:107C9000202E002000100140B02C04005A2A0400BD
:107CA00000B583B00649074B18680AF027FC10B9E5
:107CB00003B05DF804FB784602F0E0F8F8E700BF97
:107CC000882E0020F428040000B583B0154B1B68F3
:107CD00013F4804F03D0144B1B68032B14DC0021DA
:107CE0000E2001F0E7FE01210D2001F0E3FE0F4A16
:107CF000537801335370FFF7D3FF00F055FB00F0CA
:107D0000FBFA03B05DF804FB094BD3F80435074ACE
:107D100052780192074A00928B220749042007F00B
:107D200033FEDCE7242E0020202E0020882E0020A9
:107D300000100140CC2904005A2A040000B583B089
:107D4000104B1B6813F4804F03D00F4B1B68032BA1
:107D50000CDC00210D2001F0ADFE01210E2001F010
:107D6000A9FEFFF79DFF03B05DF804FB074BD3F8B6
:107D70000435074A0092A1220649042007F004FEB8
:107D8000E7E700BF242E0020202E00200010014035
:107D9000302B04005A2A040008B5FFF781FF08BD04
:107DA00010B582B004460F4B1B6813F4804F03D00C
:107DB0000D4B1B68032B04DC2378232B0ED002B061
:107DC00010BD0A4BD3F8043502780192084A00929C
:107DD000CA220849042007F0D7FDEDE7002005F08E
:107DE00055FCECE7242E0020202E0020001001403E
:107DF000B02904005A2A040000B583B06421224847
:107E000001F0F2FD214B1B6813F4804F03D0204B8F
:107E10001B68032B19DC0BF01DFA10BB1B4B1B68F6
:107E200013F4804F03D01A4B1B68032B1FDC002177
:107E30004FF4F03001F04DFE0222C8214FF4F03033
:107E400001F052FE03B05DF804FB124BD3F8043589
:107E5000114A009240F2E7121049042007F094FD05
:107E6000D9E70F4A40F2E91113F098FFD6E7094B22
:107E7000D3F804350B4A009240F2EF120749042070
:107E800007F082FDD3E700BF4D7C0200242E0020C6
:107E9000202E002000100140682F04005A2A040000
:107EA000F4290400B02C040008B5124B99881889F5
:107EB0000DF064FA58B90F4B998818890DF00EFB34
:107EC00058B90C4B188819F0EDF960B908BD0A4A89
:107ED0004FF49A7113F062FFEDE7074A40F2351153
:107EE00013F05CFFEDE7044A4FF49C7113F056FF6A
:107EF000ECE700BF6C2E0020F429040030B593B0ED
:107F0000202200210DEB02001AF0CCFA01238DF89B
:107F1000203007238DF8233006238DF82830434B7B
:107F20000C93434B1093434805F04EFB0DF1470172
:107F300008A80BF0A1F960B30B2829D13E4B1B68B0
:107F400013F4804F03D03D4B1B68032B14DC3A4BDA
:107F50001B6813F4804F1CD0384B1B68032B18DDB3
:107F6000374BD3F80435374A00924FF4D172364973
:107F7000042007F009FD0CE0314BD3F80435334AF7
:107F8000009240F2A1123049042007F0FDFCDEE728
:107F900010BB02AC2E4D0FCD0FC495E8030084E852
:107FA000030002A800F078FD9DF8473033BB224B58
:107FB0001B6813F4804F03D0204B1B68032B11DC8C
:107FC00000F092FDFFF770FFFFF7E6FE214922481F
:107FD00001F04EFC13B030BD204A40F2A71113F05F
:107FE000DDFED6E7164BD3F804351D4A009240F269
:107FF000B9121549042007F0C7FCE1E70E4B1B68D6
:1080000013F4804F03D00D4B1B68032B02DC00F0F0
:10801000CFFCDBE70A4BD3F80435124A009240F25A
:10802000C1120949042007F0AFFCF0E7A17D02006E
:1080300001780200002E0020242E0020202E002097
:1080400000100140342E04005A2A0400E42D0400DC
:10805000F8280400E9780200C97C0200F429040031
:10806000702E0400A82E040000B583B01C4A042121
:108070004FF4C04007F06CFC1A4B1B6813F4804FA0
:1080800003D0194B1B68032B11DC1AF00FF8D0B981
:1080900001F060FD154801F07DFDD0B901F0E4FD6F
:1080A000FFF72CFF01F01AFC03B05DF804FB104B46
:1080B000D3F804350F4A009240F2CB120E49042047
:1080C00007F062FCE1E70D4A40F2CD1113F066FEC5
:1080D000DEE70A4A40F2D11113F060FEDEE700BF8E
:1080E00025F90200242E0020202E0020A97B02006A
:1080F00000100140802C04005A2A0400F4290400D6
:1081000008B5FFF7B1FFFFF777FEFFF749F9FCE786
:10811000184B1B781BB1174B01221A70704700B522
:1081200087B0154A03AB07CA03C323F8022B120C0E
:108130001A70124B009303AB114A1249124814F003
:1081400093F968B9114815F079FE01460E4814F00C
:10815000B7F950B9074B01221A7007B05DF804FB5C
:108160000B4A962113F01AFEECE7094A972113F007
:1081700015FEEFE744320020742F04001D84020036
:108180000C2F002048320020F43000202C2F00203B
:108190000434040038B52F4B5C68E56829462E4846
:1081A0001AF0B3F930B9A37903F201300133A371A6
:1081B000608038BD294629481AF0A7F928B96379A3
:1081C00003F2012001336371F2E7294624481AF0D3
:1081D0009CF928B9E37903F201400133E371E7E741
:1081E000294620481AF091F938B9237A03EB430065
:1081F00000F2015001332372DAE729461A481AF0D7
:1082000084F938B9637A03EB430000F2016001336B
:108210006372CDE7294615481AF077F938B9A37A81
:1082200003EB430000F201700133A372C0E729465B
:108230000F481AF06AF928B9E37A03F6010001330E
:10824000E372B5E7237903F1400080000133237125
:10825000AEE700BF2C320020942F0400B42F04009E
:10826000D02F0400003004002830040050300400F7
:108270007C30040070B58AB0064600230393049353
:1082800005930693079308938DF82430154D2B8999
:10829000ADF81C30FFF77EFFADF8220003AC6B6831
:1082A00053F8100F59689A68DB680FC40E490F48DD
:1082B00014F01EF958B90123009303AB094A927ACE
:1082C00031460B4814F018F930B90AB070BD094AAC
:1082D0008C2113F063FDEEE7064A8D2113F05EFD5D
:1082E000F3E700BF2C3200200C2F00204832002082
:1082F000F43000200434040000B583B0104B1B6838
:1083000013F4804F03D00F4B1B68032B06DC0E4881
:1083100014F0A0F970B903B05DF804FB0B4BD3F86F
:1083200004350B4A00924FF4A3720A49042007F067
:108330002BFBECE7084A40F2471113F02FFDEAE768
:10834000242E0020202E00201D8402000010014059
:10835000803404006A3404000434040000B583B09F
:108360000C4B1B6813F4804F03D00B4B1B68032B83
:1083700004DC14F077F903B05DF804FB074BD3F885
:108380000435074A00924FF4A6720649042007F00C
:10839000FBFAEEE7242E0020202E002000100140E2
:1083A000A43404006A34040000B583B0134B5B6846
:1083B0005B78282B0AD0124B02221A70114B012233
:1083C0001A70FFF7A5FE03B05DF804FBFFF7C6FFC8
:1083D0000D4B1B6813F4804FF5D00C4B1B68032B1F
:1083E000F1DD0B4BD3F804350A4A009240F23B1200
:1083F0000949042007F0C8FAE5E700BF2C32002045
:108400008832002028320020242E0020202E002038
:1084100000100140943304006A34040070B5C8B001
:10842000044603780A2B10D8DFE813F00B00810212
:10843000BD000F000F000F000F0059020F00F701E1
:1084400075019B4B1B78012B01D048B070BD994B37
:108450001B6813F4804F03D0974B1B68032B5BDC26
:10846000E269137843B9934B1B6813F4804F03D030
:10847000914B1B68032B51DC637D002BE5D08D4BAA
:108480001B6813F4804F03D08B4B1B68032B7ADCE3
:108490008A4D6E6804F1160001F000FAF0606B6816
:1084A000DB68002BD1D0FFF759FF824B1B6813F418
:1084B000804F03D0804B1B68032B66DC7C4B032270
:1084C0001A70201DFFF7D6FEBFE7E21812797C492B
:1084D0000D68100959002E5C07A800F8136002F01F
:1084E0000F020131AA5C425401330F2BEDD907AAC8
:1084F00000238DF83C3003F1804303F58833D3F833
:10850000043502926F4A01926F4A0092A8226F4985
:10851000042007F039FAA3E70023E6E76C4BD3F811
:10852000043592F90D2001926A4A0092AC22674903
:10853000042007F029FA9FE7E218927D60490D6850
:10854000100959002E5C07A800F8136002F00F0212
:108550000131AA5C42540133032BEDD907AA002351
:108560008DF8243003F1804303F58833D3F80435C4
:108570000292594A0192544A0092B122534904206E
:1085800007F002FA84E70023E6E7514BD3F80435FD
:108590006A68D2680192514A0092B7224B4904207E
:1085A00007F0F2F98AE7434B1B6813F4804F03D0BE
:1085B000414B1B68032B28DC3D4B1B78032B35D02C
:1085C000022B7FF442AF3D4C626813780133137085
:1085D000E368984723699847364B1B6813F4804F2C
:1085E00004D0354B1B68032B00F38280334B5A6851
:1085F0005088D3680193002400942346203202213E
:1086000001F096F82A4B1C701FE7314BD3F8043564
:10861000334A12780292264A12780192314A009225
:10862000C0222A49042007F0AFF9C5E72C4B1B787C
:10863000EBB1204B1B6813F4804F03D01E4B1B681B
:10864000032B09DC1A4B01221A70254A1378013BCF
:108650001370FFF751FEF8E61D4BD3F80435224A9C
:108660000092C5221949042007F08EF9EAE7114B60
:108670001B6813F4804F03D00F4B1B68002B06DCE4
:108680000B4B00221A700D4B5B699847DDE6104BCF
:10869000D3F80435227A0949496849880291019240
:1086A000124A0092CD220949012007F06DF9E7E74F
:1086B00028320020242E0020202E00202C320020E2
:1086C000282E00209C300400A42B04006A340400EF
:1086D00000100140A4300400B0300400BC3004009D
:1086E00088320020E83004003031040054310400A6
:1086F0009A4BD3F8043562685188994800880390F2
:108700000291D2680192974A0092D9229649042098
:1087100007F03AF96AE7954B1B6813F4804F03D0D2
:10872000934B1B68032B4EDC924B02221A708F4B2B
:108730001B6813F4804F03D08D4B1B68032B4DDC5B
:10874000E3688D49D88A0EF053FF002851D1E068C4
:108750008A4B19688A4BA2684988C08A0FF088FC46
:1087600000284BD1864B188815F040FE00284AD1CE
:10877000814B1988824B188815F0EEFD002847D1EF
:108780007A4B1B6813F4804F3FF45FAE784B1B6845
:10879000032B7FF75AAE714BD3F80435E268D28AC7
:1087A000764909684988764800880490039172499F
:1087B000098802910192734A0092FF226A490420BB
:1087C00007F0E2F841E6654BD3F804356E4A0092B3
:1087D000E9226549042007F0D7F8A5E75F4BD3F8F5
:1087E00004356A4A0092EE225F49042007F0CCF873
:1087F000A6E7674AF02113F0D1FAA8E7644AF4210A
:1088000013F0CCFAAEE7624AF72113F0C7FAAFE7EC
:108810005F4AF92113F0C2FAB2E7027A504B1A808C
:10882000102300220121406813F095FE00283FF438
:108830000CAE4E4B1B6813F4804F03D04C4B1B689F
:10884000002B13DC534B1B784BB3484B1B6813F4C2
:10885000804F03D0464B1B68032B14DC454B012291
:108860001A704C4A1378013B1370EEE53B4BD3F87A
:1088700004350190484A009240F20F123A49012013
:1088800007F082F8DEE7354BD3F80435434A00920F
:108890004FF489723449042007F076F8DEE7334B51
:1088A0001B6813F4804F03D0314B1B68032B06DC8D
:1088B000304B00221A70314B5B699847C5E5274B56
:1088C000D3F804352D4A526852880192344A0092F6
:1088D00040F219122449042007F056F8E8E707ADE2
:1088E000304B0FCB85E80F0010222946606813F04B
:1088F0003BFEB0B91D4B1B6813F4804F3FF4A5AD90
:108900001B4B1B68032B7FF7A0AD144BD3F804352A
:10891000254A009240F227121349042007F034F848
:1089200093E51B4A4FF4937113F038FAE2E70F4BCB
:108930001B6813F4804F3FF488AD0D4B1B68032B6D
:108940007FF783AD054BD3F80435184A00924FF4F6
:1089500096720549042007F017F876E500100140EB
:108960008A320020983104006A340400242E00204A
:10897000202E002028320020062F00202C3200203C
:10898000082F002020320400D4310400F831040004
:10899000043404008832002064320400943204005D
:1089A000A4320400802F04000C330400343304008C
:1089B00030B589B00123069306A90DF116000FF01A
:1089C00049FB60BB069B012B2FD12C4C2568BDF8C1
:1089D00016000EF0D3FF688023685A884FF6FF73A5
:1089E0009A4226D0254B1B6806AA191D58880FF0FD
:1089F00087FD10BB07A80EF0EDFD204B1968BDF8F0
:108A00001C000FF0C1FBF0B91D4B1B6813F4804F25
:108A100003D01C4B1B68032B1BDC09B030BD1A4A6A
:108A20004FF4AC7113F0BAF9CCE7784601F026FAAE
:108A3000CBE7784601F022FAD4E7134A4FF4AE713F
:108A400013F0ACF9D6E7104A4FF4B07113F0A6F961
:108A5000DAE70E4BD3F80435084A1268518890883B
:108A60001288039202900191094A009240F2631227
:108A70000849042006F088FFCFE700BF2C32002011
:108A8000242E0020202E0020043404000010014079
:108A9000543304006A34040038B50446C36883B113
:108AA000636993B12369A3B10C4D0FCC0FC594E852
:108AB000030085E803000023094A1370094A137074
:108AC00038BD784601F0DAF9EAE7784601F0D6F9E0
:108AD000E8E7784601F0D2F9E6E700BF2C32002043
:108AE000443200202832002010B584B0334BDB69BB
:108AF000039303A80EF03AFD002836D1304C60688D
:108B00001021084405F064F960681021203005F058
:108B10005FF960681021303005F05AF96168226809
:108B20000232103100200FF01DF820BB254B1B68CE
:108B300013F4804F03D0244B1B68032B21DC204B04
:108B400019685A680B1D2032498800200FF038FB45
:108B500038BB1B4B19685A680B46303249880120D4
:108B60000FF086FA18BB04B010BD184A4FF4BB7161
:108B700013F014F9C2E7154A4FF4BF7113F00EF960
:108B8000D4E7134BD3F804350D4A1268528801928A
:108B9000104A009240F27F120F49042006F0F4FEC2
:108BA000CDE70A4A4FF4C07113F0F8F8D1E7074A4D
:108BB00040F2831113F0F2F8D5E700BF742F0400E0
:108BC0002C320020242E0020202E0020043404000B
:108BD00000100140F03304006A34040082B04FF604
:108BE000FF73ADF800300B4B1B685B88ADF80230AB
:108BF000009B0020DAB262F30700C3F3072262F39E
:108C00000F20C3F3074262F317401B0E63F31F608C
:108C100002B070470C2E002010F0010F02D04CF271
:108C2000050070474CF20400704710F0010F02D0AD
:108C30004CF2030070474CF20200704741F20113FE
:108C400098426DD013D941F20333984274D041D980
:108C500041F20633984275D056D841F20433984217
:108C600072D041F2053398424CD13948704741F2F5
:108C70000303984256D015D8B0F5805F54D009D977
:108C800041F20103984251D041F20203984207D1C8
:108C900030487047022801D12F4870472F4870474D
:108CA0002E48704741F20603984241D008D941F25C
:108CB000070398423ED0B0F5885F09D12848704735
:108CC00041F20403984201D1264870472348704777
:108CD00022487047B0F5985F30D009D941F201338E
:108CE00098422DD041F20233984209D11E48704774
:108CF00041F20213984201D11C487047174870474F
:108D0000164870471548704741F20F3398421DD0FE
:108D100041F21033984201D1154870470F4870470F
:108D200014487047144870471448704714487047F7
:108D300014487047144870471448704714487047E7
:108D400014487047144870471448704714487047D7
:108D5000903D0400343C0400D83D0400F43B040082
:108D6000A43D0400F43C0400643C0400C83D04003D
:108D70002C3D0400B43D04004C3C0400043C0400C1
:108D80001C3C0400B43C0400D03C0400443D0400FE
:108D90007C3C0400943C0400703D0400583D0400F9
:108DA0001C3D040070B5064614460D4601B122B1C3
:108DB000044B5E801D705C6070BD784601F05EF80B
:108DC000F6E700BF9432002010B584B0434B5A88B8
:108DD000824221D148F21903984240D035D948F255
:108DE0002503984264D048F23E03984235D048F2B9
:108DF0001F03984235D03A4B1B6813F4804F03D0C1
:108E0000384B1B68002B2EDC374A40F21D11052021
:108E100012F0C4FFFF2433E0314B1B6813F4804F82
:108E200003D0304B1B68002B02DC022004B010BDC5
:108E30002E4BD3F80435029001922D4A0092FF2266
:108E40002C49012006F0A0FDEFE7022817D048F2D8
:108E500003039842CFD10C7812E00C7810E00C7824
:108E60000EE00C780CE0214BD3F80435224A009236
:108E70004FF48E721F49012006F086FDC4E7FF24DF
:108E8000164B1B782BB3164B1B6813F4804F03D083
:108E9000144B1B68032B0DDC0023104A12789A42F6
:108EA00015D90E4A5268D25CA24214D00133F4E7BD
:108EB000FF24E5E70D4BD3F8043501940F4A0092E7
:108EC00040F225120B49042006F05EFDE4E7012084
:108ED000ACE70020AAE70020A8E700BF94320020FA
:108EE000242E0020202E0020D43404000010014045
:108EF000483504003A350400743504009435040004
:108F000030B583B00446084A012148F23E00FFF71D
:108F100049FF064B1D88FFF761FE024629462046A1
:108F200015F056FB03B030BD343704008C320020FE
:108F300070B5044615461E460180104604F0C6F979
:108F40002071E580104B1B88A3810023A373282286
:108F5000E273267401256574A374FFF73FFEE07485
:108F6000C0F307232375C0F307436375C0F307609D
:108F7000A075064A294648F21900FFF713FF20465C
:108F800015F0B0FA70BD00BF8C3200202C37040001
:108F900030B585B0054601AC002301930293ADF8CE
:108FA0000610084604F092F98DF80400074A0121E2
:108FB00048F21F00FFF7F6FEFFF710FE034694E8A5
:108FC0000600284615F0A8FA05B030BD3037040079
:108FD00010B50A4B1B7863B1084C2378013B04F8A9
:108FE000043B04F0BBFD06490144204604F08CFD1F
:108FF00010BD784600F042FFEEE700BFAC32002023
:10900000404B4C0008B5034804F066FD024B034A90
:109010001A6008BDB03200200C2E0020E038040099
:1090200008B5FFF7EFFF024B1B68984708BD00BF6C
:10903000A0320020F0B58BB08C4B1A681378013B3E
:109040003F2B00F23F82DFE813F0B40040006A00DB
:109050008F00BE00BE00BE00BE00BE00BE00BE004F
:10906000BE00BE00BE00BE00BE00BE00BE00BE0010
:10907000BE00BE00BE00BE00BE00E10033016F01B5
:10908000A9010D0233016F01A9010D0233016F0126
:10909000A9010D023301A9013301A9013301A9017D
:1090A0003301A9013301A901DB013301A901330116
:1090B000A9013301A9013301A9016F010D02330197
:1090C000A9013301A9016F010D02694B1B6813F45B
:1090D000804F03D0674B1B68032B14DC002015F076
:1090E0009BF90446002211460220FFF75BFE44B1C3
:1090F00015F078FA604B1B78002B00F0EA81FFF73F
:1091000067FF0BB0F0BD5D4BD3F804355C4A0092AD
:1091100040F2B3125B49042006F036FCDEE7544B04
:109120001B6813F4804F03D0524B1B68032B0BDCDE
:109130000121022015F018FA04460022114648F2D7
:109140002500FFF72FFED2E74C4BD3F80435012260
:109150000292022201924C4A009240F2BD12494909
:10916000042006F011FCE3E7414B1B6813F4804F29
:1091700003D0404B1B68032B0FDC444B1A68444B55
:109180001988444B188815F06BF90446424A0221AD
:1091900048F20300FFF706FEA9E7384BD3F8043581
:1091A0003E4A009240F2C7123649042006F0ECFB1A
:1091B000E3E73B490B8801330B8004322B4B1A60E9
:1091C000FFF738FF9DE72A4B1B6813F4804F03D04D
:1091D000284B1B68032B05DC314B1888FFF790FEEA
:1091E000044684E7254BD3F804455088FFF726FD55
:1091F0002B4B1B88029301902A4B0093234640F28D
:10920000EF122049042006F0BFFBE5E7002304939A
:1092100005930693079308930993234B1B78012228
:109220001F49098804A8FFF783FE0446104B1B68FA
:1092300013F4804F3FF45BAF0E4B1B68032B7FF79B
:1092400056AF0E4BD3F80455084B1B685888FFF7F0
:10925000F5FC012302930190144B00932B4640F23E
:1092600003220849042006F08FFB40E70C2E002063
:10927000242E0020202E0020AC32002000100140BF
:10928000E43504003A35040000360400C8320020FA
:109290008C3200209C320020383704003036040025
:1092A0008E32002040360400D03404006C360400B6
:1092B0000023049305930693079308930993864B21
:1092C0001C88864B1888FFF7A7FC4FF00003024666
:1092D000214604A8FFF72CFE0446814B1B6813F4BB
:1092E000804F3FF404AF7F4B1B68032B7FF7FFAE2B
:1092F0007D4BD3F80455794B1888FFF78DFC064653
:109300007A4B1B685888FFF799FC734B1B880393B3
:1093100002900196764B00932B464FF40A727549E2
:10932000042006F031FBE2E6002304930593069344
:10933000079308930993684B1C882046FFF775FC38
:109340004FF000030246214604A8FFF7F1FD044652
:10935000634B1B6813F4804F3FF4C9AE614B1B682D
:10936000032B7FF7C4AE604BD3F804655A4B1D88BE
:109370002846FFF75AFC07465C4B1B685888FFF7E6
:109380005DFC039502900197594B0093334640F2E0
:1093900042225849042006F0F7FAA8E64E4B1C88F2
:1093A0004E4B1888FFF741FC01462046FFF7F0FDC1
:1093B00004464B4B1B6813F4804F3FF498AE494B67
:1093C0001B68032B7FF793AE474BD3F80455434BF1
:1093D0001888FFF72AFC0646444B1B685888FFF79D
:1093E0002DFC3D4B1B88039302900196424B00934A
:1093F0002B4640F25A223F49042006F0C5FA76E691
:10940000354B1C88354B1888FFF706FC0146204673
:10941000FFF7BEFD0446324B1B6813F4804F3FF448
:1094200066AE304B1B68032B7FF761AE2E4BD3F833
:1094300004552A4B1888FFF7EFFB06462B4B1B6899
:109440005888FFF7FBFB244B1B880393029001967F
:10945000294B00932B4640F265222649042006F052
:1094600093FA44E61C4B1C882046FFF7D5FB0146C7
:109470002046FFF78DFD0446194B1B6813F4804FFF
:109480003FF435AE174B1B68032B7FF730AE164BFE
:10949000D3F80465104B1D882846FFF7BDFB07462F
:1094A000124B1B685888FFF7C9FB03950290019780
:1094B000114B009333464FF41D720E49042006F001
:1094C00063FA14E60D4A40F27921052012F066FC99
:1094D0000EE6FFF7A5FD14E68E3200209032002044
:1094E000242E0020202E0020001001400C2E0020F1
:1094F0009C3604003A350400E4360400D4340400F9
:1095000008B5FFF797FD08BD08B5FFF77BFD024BD7
:109510001B68984708BD00BFA432002000B583B087
:109520001C4B1B681A789AB1412A11D041680088F7
:10953000FFF74AFC28BB174A1368191D1160164A29
:10954000032111701B79412B18D0FFF773FD1AE02E
:10955000124B1B6813F4804F15D0114B1B68012B65
:1095600011DD104BD3F8043501920F4A009240F2FE
:10957000A7220E49022006F007FA04E0FFF7C4FF15
:1095800001E0012802D003B05DF804FBFFF748FDBD
:10959000F9E700BF0C2E0020AC320020242E002062
:1095A000202E002000100140B03504003A350400A0
:1095B00000B589B04FF6FF73ADF81E30ADF81C3022
:1095C00001238DF81430ADF816000DF11E0105A829
:1095D0000EF0A0F9E8B907A9BDF816000EF0D4FD09
:1095E000E8B9BDF81C0014F001FFF0B9BDF81E1079
:1095F000BDF81C0014F0B0FEE8B91B4B1B6813F457
:10960000804F03D0194B1B68032B1ADC09B05DF89F
:1096100004FB174A40F2992112F0C0FBDBE7144A21
:1096200040F29A2112F0BAFBDBE7114A40F29D2189
:1096300012F0B4FBDAE70E4A40F29E2112F0AEFBC4
:10964000DBE70C4BD3F80435BDF81E200292BDF8C1
:109650001C200192084A009240F29F2207490420F0
:1096600006F092F9D2E700BF242E0020202E002021
:10967000D434040000100140003F04003A350400D7
:1096800030B583B0002837D1224B1B6813F4804FCC
:1096900003D0214B1B68032B13DC204B1B8843B3E7
:1096A0001C4B1B6813F4804F03D01B4B1B68032B10
:1096B00013DC1A4A1388013B1380FFF7BBFC03B08D
:1096C00030BD174BD3F80435164A009240F2CF2232
:1096D0001549042006F058F9DFE7114BD3F804359B
:1096E000124A009240F2D3220F49042006F04CF9AE
:1096F000DFE7FFF795FCE2E70C4615460228DED1CE
:1097000021B129462046FFF709FFD8E7784600F047
:10971000B5FBF6E7242E0020202E0020A8320020E2
:1097200000100140E83D04003A350400143E0400F6
:1097300010B582B03D4C2468247804BB3C4C20809A
:109740003C4C20803C4801803C493D48C860032097
:1097500008703C490A603C4A1380BDF810203B4B1E
:109760001A800024314B1C600E2C23D8384B53F840
:109770003410059818F0C9FEB0B10134F4E7354B48
:109780001B6813F4804F27D0334B1B68002B23DD5D
:10979000324BD3F80435324A009240F2EB22314981
:1097A000012006F0F1F817E0294B03EBC4046268CE
:1097B0001E4B1A601D4B1B6883B1264B1B6813F4AC
:1097C000804F03D0244B1B68032B20DC184B1888D8
:1097D000FFF7EEFEFFF72EFC02B010BD1D4B1B681D
:1097E00013F4804F03D01C4B1B68002B03DC78461E
:1097F00000F044FBE1E7194BD3F804351A4A009214
:1098000040F203321749012006F0BEF8EFE7134B90
:10981000D3F80435064A12880192144A009240F2A5
:1098200007321049042006F0AFF8CFE70C2E0020D5
:10983000903200208E320020A8320020AC3200206E
:1098400001950200C83200208C3200209C3200209A
:10985000143B0400242E0020202E00200010014084
:10986000203E04003A350400543E0400803E0400CB
:1098700038B50C46054628B144B1064B1D60064B71
:109880001C6038BD784600F0F9FAF5E7784600F03C
:10989000F5FAF2E7A4320020A032002070B584B0BF
:1098A000064600240E2C12D80B4B53F83450284691
:1098B00018F052FE6A4681B2284605F035F90422B6
:1098C0006946304618F08AFD10B10134EAE70025F8
:1098D000284604B070BD00BF143B040070B598B0BA
:1098E000002401E00134E4B20E2C27D82F4B53F8AA
:1098F0003450284618F030FE14AA81B2284605F0EC
:1099000013F9149A18AB03EB840343F84C2C284B3F
:109910001B6813F4804FE5D0264B1B68062BE1DD56
:10992000254BD3F8043502920195244A009240F267
:1099300032322349072006F027F8D3E700252DE02F
:109940000134E4B20E2C28D818AB03EB850353F88E
:109950004C2C18AB03EB840353F84C3C9A42EFD1E8
:10996000134B1B6813F4804FEAD0124B1B68002B7B
:10997000E6DD114BD3F8043503920C4A52F834005B
:10998000029052F8352001920E4A00924FF44F7225
:109990000B49012005F0F8FFD2E735460D2D03D81D
:1099A0006E1CF6B23446CDE718B070BD143B04000F
:1099B000242E0020202E0020001001409C3E040098
:1099C0003A350400C03E040008B5064B1B683BB1A5
:1099D00010F082FD002803DB024B1B689847F7E775
:1099E00008BD00BFCC32002010B50C46144B1860E7
:1099F000144A0121144818F091FB78B9610CE00376
:109A000041F26F7200238B4208BF82420BD24FF4A7
:109A10007A72002318F0D6FB014605E00B4A4A2172
:109A200012F0BCF9EAE705210022094818F08CFB86
:109A300000B910BD054A4B2112F0B0F9F9E700BF9B
:109A4000CC320020C9990200444004004840040080
:109A5000D032002008B5134B1B6873B14FF0A04201
:109A6000D2F80435104909684B40C2F804350D4A54
:109A70001368013B136023B108BD002012F080F988
:109A8000ECE70A4818F082FB4FF0A042D2F8043508
:109A90000549096823EA0103054909680B43C2F82F
:109AA0000435E9E7F0320020F4320020F8320020DB
:109AB0002033002031B1012383404FF0A042C2F88F
:109AC0000C357047012383404FF0A042C2F808359F
:109AD000704721B14FF0A043C3F80C0570474FF019
:109AE000A043C3F8080570475AB338B51346132985
:109AF00000D838BD134A10605B00013B124A136066
:109B00004FF0A043D3F804351840104B18600025DF
:109B10004C0CC8034FF47A72002310F5FA7044EB32
:109B2000050118F04FFB2A460146094818F00CFBC6
:109B30000028DED1034B1A684FF0A043C3F80C2570
:109B4000D7E77047F4320020F032002020330020A5
:109B5000F832002008B50D230BE04FF0A04103F5CB
:109B6000E072032041F8220001229A40C1F8082542
:109B70000133102BF1D9054A0121054818F0CEFA1E
:109B800000B908BD12F0FCF8FBE700BF559A0200CF
:109B9000AC400400F0B1104A1060002309E00F4A05
:109BA000D25C02F5E0724FF0A0410D4841F822006E
:109BB0000133032BF3D90B4B4FF00042C3F80423BE
:109BC0000020C3F87C01084BC02283F80623402202
:109BD0001A6070470E20704718330020B040040010
:109BE0000C0003000060004000E100E010B500241C
:109BF000144BC3F87C4103E0D11A14E00134E4B201
:109C0000032C1ED84FF0A043D3F810250E4B195D3E
:109C100001238B409343F1D00C4B1B680C4AD2F8C4
:109C20000425991AE8D443F233339942E6D9084B14
:109C3000D3F80425054B1A60064B1B68204698474D
:109C4000DCE710BD00600040B04004001C33002081
:109C5000001001401833002060DF704769DF704753
:109C600008B503F0B5FC08BD10B588B011F0ECFEE6
:109C700000282BD1224B0793079A069200230393C7
:109C80000493059303A90120FFF7E8FF08BB002315
:109C900004930593F8230393069A03A9A120FFF7E1
:109CA000DDFFC8B906A8FFF7D7FF0446069A079B51
:109CB0009A4208D0134B1B6813F4804F03D0124B09
:109CC0001B68012B0BDCB4B908B010BD12F058F8BA
:109CD000D0E712F055F8DAE712F052F8E2E70B4B52
:109CE000D3F8043501920A4A0092AC2209490220B5
:109CF00005F04AFEE7E7204612F042F8E4E700BF2D
:109D0000002E0020242E0020202E002000100140D4
:109D1000244104000B4104000620704700B587B0C1
:109D200041F2010398424CD020D944F201039842F9
:109D30005DD044F20203984274D1464B1B6813F481
:109D4000804F1ED0444B1B68002B1ADD434BD3F8C9
:109D5000043510880390526802920191404A0092A3
:109D60006C224049012005F00FFE0AE0012859D17C
:109D7000384B1B6813F4804F03D0374B1B68002B04
:109D800012DC4FF0A0434FF4F032C3F81825C3F8AB
:109D90000C25EFF3108372B64DF6AD6C324B1B7889
:109DA000002B54D030BFF9E72C4BD3F80435029286
:109DB00001912E4A009260222A49012005F0E4FD1B
:109DC000DFE7244B1B6813F4804FDAD0224B1B686B
:109DD000002BD6DD214BD3F8043502920191244AA1
:109DE000009263221F49012005F0CEFDC9E7194BFF
:109DF0001B6813F4804FC4D0174B1B68002BC0DDC9
:109E0000164BD3F804351068049050680390029103
:109E100092680192174A009277221249012005F0B8
:109E2000B3FDAEE70B4B1B6813F4804FA9D00A4B70
:109E30001B68002BA5DD094BD3F8043501910E4AB0
:109E400000927B220749012005F09EFD99E707B0AB
:109E50005DF804FB242E0020202E0020001001407D
:109E600008420400B7410400102E0020C84104003D
:109E7000E4410400284204004C42040000B583B0D1
:109E80000023ADF80030054B01936A46014644F2C9
:109E90000200FFF743FF03B05DF804FBFC2A040057
:109EA00010B40346044C006859689A68DB680FC414
:109EB0005DF8044B704700BF243300200D4B0E4A61
:109EC00092E8030083E8030003F108020B4903C989
:109ED00082E8030093F9062002F00F0242F04002EC
:109EE0009A7193F9082002F03F0242F080021A7240
:109EF000704700BF2433002060000010A400001051
:109F0000004870472433002000231F2B09D807493D
:109F100001EBC30000224280426001F8332001338C
:109F2000F3E7034B00221A60704700BF3433002070
:109F30003434002030B405460F4B1B6800240AE07F
:109F40001F230E4A12F83300A0B102EBC30252885D
:109F5000AA4207D001341F2C0BD85A1E002BEFD079
:109F60001346EEE7054A02EBC30252688A42F1D17A
:109F700000E0002030BC704734340020343300202F
:109F800030B40A4A13680A4C04EBC3056880696060
:109F9000012104F833100B441360202B01D030BC96
:109FA0007047134600221A60F9E700BF34340020DE
:109FB00034330020F0B416461F46002300E001337E
:109FC000072B0ED81901084C615A8142F7D104EBD6
:109FD0000312D2E90245BD4208BFB442EFD10120CD
:109FE00000E00020F0BC7047383400202DE9300834
:109FF000C1698269C3884FEA112C4FEA016BC2F331
:10A000000C01994217D25B1A1344A3F500531BEBC2
:10A0100003044CF10005094A1368591C116003F050
:10A020000703808A064A1B01D118D052C1E90245B4
:10A03000BDE8300870475B1A1344E8E7B8340020E5
:10A0400038340020C37D002B42D0C3780A7802F058
:10A05000800203F07F0313430B7002780B7803F048
:10A060007F0343EAC2130B700378002B41D030B456
:10A070008378082B14BF002201224B7803F07F0362
:10A0800043EAC2134B70C58803F08003C5F38614FE
:10A0900023434B708A7802F0030242EA8502D2B26F
:10A0A0008A70057A02F0FC02C5F3C10422438A706B
:10A0B000CB7803F01F0343EA4513DBB2CB70427A3F
:10A0C00003F0E00302F01F021343CB7030BC704773
:10A0D000C3780A7802F0BF029B0103F040031343E8
:10A0E0000B70027903F0C00302F03F0213430B70C0
:10A0F000B3E770470023032B2DD810B402E00133DF
:10A10000032B24D8C3EBC3021401144A224492F84F
:10A110004820012AF3D1114A2244948AC2899442E8
:10A12000EDD1C3EBC30214010C4A2244D2888A4207
:10A13000E5D10A4A2244B2F8582012B1848AA242D8
:10A14000DDD1C3EBC3031A010448104400E0002032
:10A150005DF8044B70470020704700BFE4340020D6
:10A16000002300E00133032B14D8C3EBC302110119
:10A17000094A0A4492F84820022AF3D1064A0A44BE
:10A18000918A828A9142EDD1C3EBC3031A0102483E
:10A190001044704700207047E434002008B90420C0
:10A1A00070470820704730B403460C460978C170E8
:10A1B00000214162A1680B2903D8217B01B3012151
:10A1C00000E0012119700020987029B1A1680731C1
:10A1D000C9080139597218720121D97503F10C05AA
:10A1E00004F1100103C985E80300E1899982A1699E
:10A1F0001962217F9975216AD9629A6230BC7047D1
:10A200000021DFE70021174B1B688B4227D9002371
:10A21000154A02EBC10252689A421ED910B40FE0EF
:10A2200060685DF8044B704701310E4B1B688B4230
:10A2300011D900230C4A02EBC10252689A42F3D9A9
:10A24000094A52F8312002EBC30412F8332082424B
:10A25000E6D00133EEE70020E3E70131D3E7002049
:10A26000704700BFBC340020C034002070B58CB0F3
:10A2700006460D4614462C22002101A818F012F9BA
:10A280000F238DF80430ADF808604FF0000365F33C
:10A2900000038DF80A308DF80B4001A801F0F8F9A1
:10A2A0000CB070BD30B58DB005460C462C22002197
:10A2B00001A818F0F7F810238DF8043002958DF8F6
:10A2C0000C4001A801F0E4F90DB030BD00B58DB02F
:10A2D00010B913F1020F06D1074B186804F044FAC5
:10A2E0000DB05DF804FB01218DF804100293039278
:10A2F00001A801F0CDF9EFE7C8340020F8B5069CBD
:10A30000002962D00F4616685568D2F808E0D2F8E6
:10A310000CC0E6602561C4F814E0C4F818C01669E2
:10A320005569E6612562002262700278D2092270C6
:10A3300062B30421B9424AD8E57D4DB3017801F0FA
:10A340007F01E1700021A1709AB14278920102F47C
:10A35000FE52817842EA9102E2808278D20002F0D5
:10A360001802C17842EA51122272C27802F01F022A
:10A3700062721D46002363622B78032B21D82A7852
:10A38000144B53F82230E3620020F8BD0121D1E7DD
:10A390000578C5F38015E570057805F03F05257152
:10A3A00042B190F90110002902DB0421A170CBE732
:10A3B0000821FBE70425A5702944B942C4D9092026
:10A3C000E3E77846FFF75AFDD9E70920DDE70920E2
:10A3D000DBE700BF6842040070B50C461E460378F8
:10A3E000ABB104252A44A26000F10C032360836A08
:10A3F0006360C36AE36000232374204604F026FDF3
:10A40000034610B9626915443560184670BD0125D0
:10A41000E8E72DE9F0418EB00D4616461C46804611
:10A4200000282DD0002D2FD0002C31D0636A0233AC
:10A43000059304F10C00E378002B2DD00121A278C4
:10A4400001AF3B46082A14BF0022012204F0D1FAD2
:10A450000697CDF81C80B2B2ADF820200B951544BC
:10A460000C95A3788DF83430237B022B16D0002373
:10A47000ADF8283005A804F0B4FA0EB0BDE8F081BC
:10A480007846FFF7FBFCCDE77846FFF7F7FCCBE714
:10A490007846FFF7F3FCC9E70221D0E723692BB127
:10A4A000236909931023ADF82830E3E77846FFF7D6
:10A4B000E5FCF5E72DE9F04188B004460D46C37D83
:10A4C000002B3CD0082605FB06F8637AAB4238D057
:10A4D000257201AB324602A92046FFF77DFF0746F1
:10A4E00048BB4DB994F8533033B9A369C3F30C0397
:10A4F000E380012384F85330E37D7BB994F8523034
:10A5000063B91DBBB4F84A10A27823468A1AE16EDB
:10A510000846FFF77EFF012384F852300799204652
:10A52000FFF790FDE16E32464144019817F091FF2C
:10A5300002A804F0B1FC384608B0BDE8F0810C2652
:10A54000C1E7B4F84A60A6EB0806C1E77846FFF712
:10A5500095FCD7E770B505460E4609B100230B60A0
:10A5600095F85040002104E0631C85F85030013418
:10A57000E4B26B7AA34210D3EA6C0123A3401A42DF
:10A58000F5D121462846FFF795FF014628B9002E50
:10A59000EAD0336801333360E6E7084670BDF0B5B2
:10A5A00089B085781544C37D7BB10B239D4224D8A7
:10A5B00016460F46044601AB2A4602A9FFF70CFFD8
:10A5C000054620B1284609B0F0BD0F23EEE70799F4
:10A5D0002046FFF737FDE37D43B132463946019807
:10A5E00017F037FF02A804F057FCEBE7234632468A
:10A5F00001993846FFF70DFFF4E70925E2E700006F
:10A6000010B5044690F84830012B0CD103F0A6FA9F
:10A61000237B012B0BD0094BD968014404F1300096
:10A6200003F072FA10BD7846FFF728FCEEE7A37D31
:10A63000024AD168126902FB0311EEE7CC34002014
:10A6400030B583B0002403E02846FFF7D9FF01347A
:10A65000032C19D8C4EBC4031A010C4B134493F810
:10A660004830012BF3D100230193C4EBC402130142
:10A67000064D1D4401A92846FFF76CFF0428E3D0CE
:10A68000019B002BE3D0DFE703B030BDE4340020B2
:10A6900038B5044690F84830022B09D1064B1D68A6
:10A6A00003F05CFA411904F1300003F02DFA38BDD3
:10A6B0007846FFF7E3FBF1E7CC34002038B50446D9
:10A6C00090F84830022B10D10A4B5D7D5A689B6888
:10A6D00003FB052503F042FA411904F1500003F091
:10A6E00013FA012384F8683038BD7846FFF7C6FBBB
:10A6F000EAE700BFCC34002010B50446808A02F09F
:10A70000E5FD01281CD1237BE3B194F91620002A32
:10A710001ADBE27D4AB1022B18D094F90330002BEA
:10A7200016DBA378B3B900200BE0E2780AB9012B5D
:10A7300012D1237893B9A378042B11D1002000E023
:10A74000102010BD1020FCE70720FAE71020F8E7E2
:10A750000720F6E70720F4E70720F2E70020F0E7FC
:10A760000720EEE738B5044603784BB1C388C269C9
:10A770008169808A06F04AFB054645B9284638BDFE
:10A78000C2698169808A06F03BFB0546F5E7E1690D
:10A79000002201F00101A08AFFF768FDEEE700004A
:10A7A0002DE9F04780460E4617464B1EDBB2012BC3
:10A7B0000FD8B7F5C07F10D80024032C1AD8C4EBEB
:10A7C000C4031A01304B134493F848304BB10134A1
:10A7D000F3E77846FFF752FBEBE77846FFF74EFBCF
:10A7E000EAE7DFF8A4A015465544384608F019FDFD
:10A7F000E86600E000255DB3EB6E002B42D04346D7
:10A800002A4608F1300ED3F800C05C689868D96811
:10A81000C2F800C054609060D160103310327345AC
:10A82000F1D10023EB64A5F84A70012E13D06FF02C
:10A830000103AB62002385F86830144BAB652D66CD
:10A84000134BAB632D64012002F03CFA85F848609D
:10A850002846BDE8F0870F4B1B7D85F8513000235B
:10A8600085F8523085F8533085F85030D8F82820D4
:10A870006A65A5F858306FF00103AB62064BAB6315
:10A880002D64E0E70025E3E7E434002093B2020002
:10A89000D5AB0200CC34002021AC020000B585B05D
:10A8A00000238DF80F3098B10346084602330B6041
:10A8B0000DF10F0104F099F89DF80F3043B10D4BE5
:10A8C0001B6813F0040F03D00B4B1B68032B04DC35
:10A8D0009DF80F0005B05DF804FB084BD3F8043574
:10A8E000074A009240F215420649042005F04CF850
:10A8F000EEE700BF242E0020202E00200010014093
:10A90000A4430400954304002DE9F0438FB00446AE
:10A910000E4615461F46D0F8188003784BB1C38801
:10A92000C8F30C029A4241D29B1A4344A3F5005348
:10A93000A36104F10C00E378002B3AD00121A27846
:10A940000DF128094B46082A14BF0022012204F009
:10A9500050F8C4F81880CDF808900396A378EA1A46
:10A9600092B2ADF810203244089207978DF8243047
:10A970000023ADF81830E3787BB3237B022B1AD089
:10A980002546002345F8243F2A462179206A0DF008
:10A990006DFE606AA8B101A9FFF780FF002841D1D0
:10A9A0002A462179206A0DF061FEF2E79B1A4344A2
:10A9B000BEE70221C3E71023ADF8183023690593E1
:10A9C000DEE7237B022B31D104F10C01E0890DF08D
:10A9D000FFFE0028D1D1052025E0237B012B01D0EB
:10A9E000052020E0E389ADF80030A38AADF80230FD
:10A9F000002500E00135012D12D82146002341F841
:10AA0000243F0EAB03EB450333F8380C0DF04BFE3F
:10AA100001A9606AFFF742FF0028EBD0002002E0A6
:10AA2000052000E000200FB0BDE8F0830520FAE724
:10AA300070B5F0B00D4614461E4610AB0A460146EE
:10AA40002046FFF761FF50B1224B1B6813F0040F43
:10AA500003D0214B1B68052B2FDC70B070BD204646
:10AA6000FFF780FE0028F8D103AB01228DF80C20FF
:10AA7000A28AADF80E20002204928DF8142010AAAC
:10AA80000692A278AD1AADF81C5008AA93E803000C
:10AA900082E803000AAB04F10C0292E8030083E8A9
:10AAA0000300A37D8DF83830236A0C93636A0D93FD
:10AAB0000F9605A800F0ECFDCFE7084BD3F804355E
:10AAC000074A009240F201720649062004F05CFF3A
:10AAD000C3E700BF242E0020202E002000100140DC
:10AAE000F44304009543040010B50446C06E08F01A
:10AAF0009CFB04F1300002F0EFFF94F84830022B89
:10AB00000AD070220021204617F0CCFC002084F8E7
:10AB1000480002F0D7F810BD04F1500002F0DCFF4D
:10AB2000EFE710B58CB0044690F84830012B0FD1F8
:10AB300001238DF80430636D029303F00FF8039046
:10AB400001A800F0A5FD2046FFF7CEFF0CB010BD18
:10AB50007846FFF793F9EBE730B585B00D4604462C
:10AB6000A8B194F84830022B15D02946606DFFF744
:10AB700099FB2046FFF7B8FF114B1B6813F0040F39
:10AB800003D0104B1B68032B09DC05B030BD7846A1
:10AB9000FFF774F9E5E72046FFF728FAE5E70A4BE7
:10ABA000D3F8043594F8482002950192074A0092A0
:10ABB0004FF4FA720649042004F0E6FEE5E700BF10
:10ABC000242E0020202E0020001001408842040086
:10ABD0009543040008B508460021FFF7BDFF08BDF6
:10ABE00008B5037B012B02D0FFF79BFF08BD0121B5
:10ABF000FFF7B2FFFAE7000008B590F8513053B103
:10AC0000013B80F85130002380F85030034B186826
:10AC100003F0AAFD08BDFFF7E3FFFBE7C8340020FF
:10AC200010B50C4691F84830012B03D12046FFF7B0
:10AC3000E3FF10BD7846FFF721F9F7E7062976D143
:10AC4000F0B585B015460278910101F4FE514778C0
:10AC50008478C3781B0443EA0463047943EA042339
:10AC600044791C4356B241EA97012846FFF742FA5D
:10AC70000746E0B1002E2FDBC289A98A8A422BD079
:10AC80002B4B1B6813F0040F3ED02A4B1B68012B83
:10AC90003ADD294BD3F8043502910192274A0092FC
:10ACA00040F27F622649022004F06EFE2CE0204B29
:10ACB0001B6813F0040F27D01E4B1B68012B23DDEC
:10ACC0001D4BD3F804351F4A009240F277621C49AD
:10ACD000022004F059FE17E0002E17DBFD6C25431F
:10ACE000FD64BCB13B78D3B17B7A5A1C01239340FD
:10ACF000013B9D4217D0002187F850103846FFF7DE
:10AD000029FC3846FFF77CFC05B0F0BDAB8AA7F8FC
:10AD10005830E3E703213846FFF71EFFF4E7784693
:10AD2000FFF7ACF8E0E73846FFF7FBFEECE77047CB
:10AD3000242E0020202E002000100140F0420400AC
:10AD400095430400C04204002DE9F0438BB0074650
:10AD50000E4614461D461046FFF704FD50B994F800
:10AD60000380B8F1000F08D12B4622463146384601
:10AD7000FFF764FF0BB0BDE8F0834046FFF742FAEF
:10AD800081460028F6D08DF80480236A0793A38AB1
:10AD9000ADF8123005AB04F10C0292E8030083E831
:10ADA0000300A37D8DF820300297039623788DF859
:10ADB0001030E36A0993294601A8C847DAE710B5BD
:10ADC000547814F0010F03D0D47D14B1FFF7BCFF09
:10ADD00010BDFFF72DFEFBE708B501390130FFF785
:10ADE000EEFF08BDF0B5C7B086781644C37D2BB121
:10ADF0004FF48073B3427ED3002303E04FF4C0735B
:10AE0000F8E70133032B19D8C3EBC30425013C4CED
:10AE10002C4494F84840012CF3D1394C2C44A58A99
:10AE2000848AA542EDD1C3EBC3042501344C2C44E4
:10AE3000E589C489A542E4D1082455E014460F46AB
:10AE400032460121FFF7ACFC0546002855D02246CA
:10AE50003946C06E17F0FDFA0023459345A92846F0
:10AE6000FFF778FB044608B1042840D1459B7BB925
:10AE7000244B1B6813F0040F35D0234B1B68032BA6
:10AE800031DDB5F84A70802F28BF8027002313E0FA
:10AE90002846FFF7B5FBEBE7EA6ED25C1B490C686E
:10AEA00010095900265C04A800F8136002F00F0294
:10AEB0000131A25C42540133BB42EDD304AA00230A
:10AEC00002F8173003F1804303F58833D3F80435D3
:10AED00002920F4A01920F4A009240F264520E49C8
:10AEE000042004F051FD0024204647B0F0BD284660
:10AEF000FFF7FAFDF8E70924F6E70424F4E700BFBA
:10AF0000E4340020242E0020202E0020282E0020B3
:10AF100034430400A42B04009543040070B5044698
:10AF20000D461646FFF7E8FB034638B923783BB1D8
:10AF3000324629462046FFF755FF0346184670BDA6
:10AF4000324629462046FFF72AFB0346F6E7000073
:10AF500038B504460D46CB695B780371CB691B7825
:10AF600083F00103C370CB6943628B8A0B2B07D834
:10AF7000CB7A002B35D10B7B012B02D0002300E0D4
:10AF800001232370002B31D0287B02282BD0FFF720
:10AF900005F9A070AB8A03440B33174880FB0323E9
:10AFA0005B10013B6372002323720023E37504F1FD
:10AFB0000C0395E8030083E80300AB6923622B8947
:10AFC000A382AB7AA3752B6AA362DF23E3622846D0
:10AFD0000DF02CFC20B12B78012B0AD0FF23E3626B
:10AFE00038BD0123CDE7054B987DD0E70423A3703E
:10AFF000DBE72023F3E700BFABAAAA2ACC3400206A
:10B0000010B54FF4E0720021134817F04BFA06F028
:10B01000C5F80024114B1C6080222146104817F00F
:10B0200041FA104B104A1A60104A5A604CF25032E2
:10B030009A600F49D9601A6104221A759C7508221A
:10B040005A750C4803F070FB0B4B18600B4B1C60DF
:10B050000B4806F09DF910BDE4340020B834002000
:10B0600038340020CC34002080969800F04902004B
:10B0700020A1070085B20200C8340020BC340020A3
:10B08000CDA2020008B505F0B3FE08BD98B110B519
:10B090008CB00446036983B1C36983B1836983B10A
:10B0A00001466846FFF754FFA28A21696846FFF708
:10B0B00035FF0CB010BD0E2070470E20F9E70E20B2
:10B0C000F7E70E20F5E7000058B310B590B004463E
:10B0D000426842B3826942B30A46014604A8FFF7B8
:10B0E00062F8134B1B6813F0040F03D0114B1B685D
:10B0F000062B06DCA268616804A8FFF70FFF10B0FA
:10B1000010BD0D4BD3F804352278A169029101924C
:10B110000A4A009240F604020949072004F034FC70
:10B12000E8E70E2070470E20E9E70E20E7E700BFB2
:10B13000242E0020202E002000100140B8430400DF
:10B1400095430400037B012B01D00020704730B5EC
:10B1500091B00D460446334B1B6813F0040F03D027
:10B16000314B1B68032B41DC04A900230593CDF868
:10B170001730E288C2F3861092008DF811202A0E53
:10B180008DF812202A0C8DF813202A0A8DF814202D
:10B190008DF815506278022A0CBF80221A4642EAC6
:10B1A00000028DF810204FF0060209924FF00102C4
:10B1B0008DF82C20A28AADF82E200C938DF81C302F
:10B1C0000891226A0D928DF82830E36A0F9319D006
:10B1D000E389ADF82A30A37DF3B98DF838306FF0EC
:10B1E000010107A8FFF770FF11B030BD0F4BD3F876
:10B1F00004350F4A009240F263220E49042004F005
:10B20000C3FBB1E70DF10E0103A80DF0FDFABDF887
:10B210000C30ADF82A30DEE7074B5B7D8DF8383017
:10B22000DDE700BF242E0020202E0020001001406A
:10B230007842040095430400CC34002090F8483054
:10B24000022B00D0704790F86830022BFAD110B56D
:10B250000446C16CFFF776FF10B9002384F868300C
:10B2600010BD000010B5002407E0C4EBC4021301B8
:10B2700003481844FFF7E2FF0134032CF5D910BD51
:10B28000E434002008B5FFF7DBF9FFF7EBFF0120FE
:10B2900008BD10B50C4691F84830022B06D10223A8
:10B2A00084F868302046FFF7C9FF10BD7846FEF7E6
:10B2B000E5FDF4E72DE9F04383B00446C5698269F2
:10B2C000C388290A2806C2F30C05AB4234D95B1B9C
:10B2D0001344A3F50053C61841F1000732463B461C
:10B2E000A08AFEF767FE002840F08D802046FEF71A
:10B2F00037FF054658B3D0F81CC08269C3884FEAAF
:10B300001C294FEA0C68C2F30C0C9C4517D2A3EB26
:10B310000C031344A3F5005318EB030049F100019B
:10B32000B94208BFB0420ED38F4208BF864231D324
:10B33000284603B0BDE8F0835B1B1344CBE7A3EBC7
:10B340000C031344E8E705212846FFF705FCE388D2
:10B35000E269A169A08A05F01DFEE8B9627A531C72
:10B36000E17D99B3082202FB03F289B34FF48073A5
:10B37000934230D302212046FFF712FA05460028F7
:10B38000D6D100212046FFF7DDFE02210020FEF786
:10B3900089FFCDE70025CBE7E388E269A169A08AB0
:10B3A00005F076FE60B1237863B1617A4B1C012110
:10B3B000994001392046FFF7C5FE2046FFF7D2F934
:10B3C0000025B5E77846FEF759FDEEE70C22CAE7FF
:10B3D0004FF4C073CCE70D4B1B6813F0040F03D080
:10B3E0000B4B1B68002B01DC0025A1E7094BD3F8B0
:10B3F00004350192084A009240F27F320749012049
:10B4000004F0C2FAF0E7002592E700BF242E0020E6
:10B41000202E002000100140AC420400954304009F
:10B420002DE9F04182B00646884615461F46104673
:10B43000FFF740FF002847D00446414B1B6813F03C
:10B44000040F03D03F4B1B68032B40DC2046FFF763
:10B450001FF9237B012B48D0E16C2A7A012393400A
:10B46000194231D10B43E364A8F104082B7AEA7D39
:10B47000002A42D04FF0080C0CFB03FC617A8B428F
:10B480003ED0002A41D00823434540D1A269AB6990
:10B490009A4209D204F10C0E0C350FCDAEE80F0024
:10B4A00095E803008EE80300E06E4246311D6044DB
:10B4B00016F0CFFFE56C237873B3637A5A1C01232F
:10B4C0009340013B9D422BD002B0BDE8F0811E4B62
:10B4D000D3F804352A7A01921C4A009240F2A33232
:10B4E0001B49042004F050FAB0E794F86830002BB0
:10B4F000B2D12046FFF7E2F8AEE74FF00C0CBBE705
:10B500000CEB0803A4F84A30C0E70C23BCE7042185
:10B510002046FFF721FBD7E77846FEF7AFFCCCE7E4
:10B52000E16C2046FFF70EFE3B462246B4F84A1077
:10B53000E06EFFF744FC2046FFF7D6FAC4E700BFF1
:10B54000242E0020202E002000100140E44304009F
:10B55000954304002DE9F04190B000284CD080467E
:10B56000002A4BD01F4614460E4604AB00933B46C0
:10B57000FEF7C4FE054618B1284610B0BDE8F081BC
:10B5800004A8FFF7B9F805460028F5D10023029377
:10B59000039302A960880DF01BF928B19DF81130C2
:10B5A00043F001038DF811302269E168208905F02C
:10B5B000A9FC38B19DF8113003F0FE038DF811306D
:10B5C000002BD9D09DF81130002BD5D013F0010FEE
:10B5D00001D0039B08939DF8103033B13B4604AA79
:10B5E00031464046FFF71CFFC6E73B4604AA3146FA
:10B5F0004046FFF7F1FBBFE70E25BDE70E25BBE791
:10B60000F8B500B30546164B1F68F7B90E463C4621
:10B61000B4420ED205EBC4035B68CBB115F834001D
:10B6200010F0800F16D1B8B1FEF7ECFDB0B90134BF
:10B63000EEE70C4B43F8375003EBC7035E607B1C0F
:10B64000074A136002E00E2700E004273846F8BDE1
:10B650000E27FBE70B27F9E70F27F7E70F27F5E79B
:10B66000BC340020C0340020084B196861B110B50B
:10B6700004E0064804F0F1F8214624B10C680B7987
:10B68000002BF9D0F5E710BD704700BFA8360020A9
:10B6900038B5054630B1104B1C68C4B10F4B0122C0
:10B6A0001A7004E07846FEF7E9FBF4E724683CB141
:10B6B0002379002BFAD154F8043C28469847F5E743
:10B6C000064B1B78022B03D0044B00221A7038BDA6
:10B6D000FFF7CAFFF8E700BFA8360020A436002015
:10B6E00010B5044630B100232372211D034804F035
:10B6F00089F810BD7846FEF7C1FBF4E7A8360020B4
:10B7000010B5044658B10A4B1B78013BDBB2012B44
:10B7100009D8074B02221A700123237210BD784604
:10B72000FEF7ACFBEFE7211D024804F096F8F5E7C1
:10B73000A4360020A83600200A8883689B5A073365
:10B740009BB223F0030313449BB20288043A934252
:10B7500000D900230B80704710B582B0044683687F
:10B76000C91AADF806100DF10601FFF7E5FFBDF8A7
:10B770000630A068184402B010BD0088043880B2BA
:10B78000704743888268D018D15201238370704774
:10B79000826800239370438083807047073189B2A9
:10B7A00021F0030189B2428883889A4204D29B1A0D
:10B7B00099421EDC0020704710B59A420FD90488C8
:10B7C000A41AA14217D98B4217D3032C03D983683B
:10B7D000134404229A7000234380184604E08268D0
:10B7E00013449B780BB1042010BDFFF7D1FF00205C
:10B7F000FAE7042070470020F6E70420F4E738B5A4
:10B8000004460D468368828813448B4202D07846F2
:10B81000FEF734FB0023AB70211D2046FFF78CFFA1
:10B82000A288A36813449B78042B00D038BD002362
:10B83000A380FBE710B50C468368428813448B4213
:10B8400002D07846FEF71AFB0023A37010BD70B536
:10B85000064615460C46002944D0002E46D0B4F1C9
:10B86000005F08D94FF08053D3F80C3103F5002363
:10B87000B4EB832F0ED3B4F5000F08D94FF08053EB
:10B88000D3F80C3103F50053B4EB832F02D3784681
:10B89000FEF7F4FA6B1E2344B3F1005F08D94FF0B2
:10B8A0008052D2F80C2102F50022B3EB822F0ED386
:10B8B000B3F5000F08D94FF08052D2F80C2102F5F1
:10B8C0000052B3EB822F02D37846FEF7D7FA042D4D
:10B8D00010D9358000237380B380B460043D258087
:10B8E000A37070BD7846FEF7C9FAB6E77846FEF752
:10B8F000C5FAB4E77846FEF7C1FAEAE738B5044678
:10B90000A0B16288A36813449B78012B12D0EFF397
:10B91000108572B6A388A16819448B78032B0DD0CB
:10B920002046FFF735FF05B962B638BD7846FEF709
:10B93000A5FAE6E77846FEF7A1FAE8E72046FFF722
:10B940000BFFA368C31A638000238370EBE72DE924
:10B95000F0410E4615460446D0B1EEB16288A368A8
:10B9600013449B78012B1BD025B32046FFF705FF1E
:10B97000A84221D3EFF3108872B629462046FFF77C
:10B980000DFF074680B1B8F1000F16D162B614E082
:10B990007846FEF773FAE0E77846FEF76FFADDE7E0
:10B9A0007846FEF76BFADFE729462046FFF7E9FE07
:10B9B0003060E8E7092700E009273846BDE8F08154
:10B9C000F8B50C4616460546E0B1FCB1A378012B4C
:10B9D00020D12388B34221D326B3EFF3108772B668
:10B9E00026800223A370E9182846FFF7A5FE6B887E
:10B9F000AA88934203D0AA68134400229A7007B918
:10BA000062B6F8BD7846FEF739FADEE77846FEF70B
:10BA100035FADBE77846FEF731FADAE77846FEF7E3
:10BA20002DFAD9E77846FEF729FAD6E770B50D4624
:10BA3000044690B1ADB1EFF3108672B6A288A36848
:10BA400013449A78042A10D09A78022A15D0032A2F
:10BA500018D0052006B962B670BD7846FEF70EFA1A
:10BA6000E8E77846FEF70AFAE5E7211D2046FFF7EA
:10BA700063FEA288A3681344E6E703229A702B6052
:10BA80000020E7E77846FEF7F9F90020E2E738B54D
:10BA9000044680B1EFF3108572B6A088A168014416
:10BAA0008B78042B0BD08878022814BF002001204B
:10BAB00005B962B638BD7846FEF7E0F9EAE72046F8
:10BAC000FFF74AFE0146EEE738B5044678B1EFF3DA
:10BAD000108572B6A088A16801448878C31EDBB2C5
:10BAE000012B08D82046FFF737FE0146F5E77846D8
:10BAF000FEF7C4F9EBE7022814BF0020012005B9C6
:10BB000062B638BD70B50C46064678B194B1EFF315
:10BB1000108572B6A378012B10D0032B13D12146C8
:10BB20003046FFF76CFE05B962B670BD7846FEF789
:10BB3000A5F9EBE77846FEF7A1F9E8E7214630469C
:10BB4000FFF778FEEFE77846FEF798F9EBE710B5D8
:10BB5000EFF3108472B68388816819448B78042BC4
:10BB600006D08878B0FA80F0400904B962B610BDFA
:10BB7000FFF7F2FD0146F4E708B5064B986800228E
:10BB80001A605A609A60DA601A615A619A6104F028
:10BB9000CBFE08BDAC36002000B585B00A4BDB6893
:10BBA00002228DF8002001934FF480530293074A3C
:10BBB0006946012001F0A0FA18B9012005B05DF82E
:10BBC00004FB0020FAE700BFAC360020C836002096
:10BBD00000B585B00A4B1B6802228DF80020019346
:10BBE0004FF480530293074A6946012001F084FA1A
:10BBF00018B9012005B05DF804FB0020FAE700BF8A
:10BC0000CC360020C8360020164BDA6813795179FB
:10BC10005B1A03F57F2303F6FF7302EB03339A42AB
:10BC200005D002F580520F4BDA600320704700B553
:10BC300085B00D4B1B6801208DF8000001930B4B64
:10BC40000393042302930A4A694601F055FA18B196
:10BC5000002005B05DF804FB024B01221A76022099
:10BC6000F7E700BFAC360020CC360020D0360020ED
:10BC7000C836002000B585B00C4BDA680C4B1B6849
:10BC8000043301208DF800000192039340F6FC7309
:10BC90000293084A694601F02FFA18B90120034BB4
:10BCA000187600E0002005B05DF804FBAC360020FB
:10BCB000CC360020C836002000B585B00A4B1B6882
:10BCC00001208DF800000193084B03930423029395
:10BCD000074A694601F010FA18B9012005B05DF86D
:10BCE00004FB0020FAE700BFCC360020B836002065
:10BCF000C836002010B584B0104BDA681478104BA9
:10BD00001B68043301208DF8000001930392029414
:10BD10000C4A694601F0F0F968B9094B1B6804F058
:10BD2000FC041C440434054B5C61D9680A780A445D
:10BD30001A61012000E0002004B010BDAC360020E4
:10BD4000CC360020C836002008B50023092B09D8BE
:10BD5000064A52F82320824201D00133F6E7044A12
:10BD6000536002E07846FEF789F808BDBC44040041
:10BD7000AC36002010B5214BDB6853B11F4B1B7E46
:10BD80005BB91E4B5B68092B26D97846FEF776F81F
:10BD900022E07846FEF772F8F0E77846FEF76EF894
:10BDA000EFE7164A536801335360092B21D97846CF
:10BDB000FEF764F81DE0114B00225A6019E00F4BAA
:10BDC0001B7E1BB10D4B02221A7012E0FFF7D4FE4E
:10BDD0000FE00A4B1B7E83B9084B5A68084B53F897
:10BDE0002230984704460228E9D00328E3D00128EE
:10BDF000D7D0012CEDD0032CEBD010BDAC360020F9
:10BE0000BC440400104B1B681B685A1E12F1030F40
:10BE100018D8C3F30B020AB10020704710B50B4AC3
:10BE2000D36000231376537601241470936008487E
:10BE3000FFF78AFF0749204601F04CF9FFF79AFF08
:10BE4000204610BD00207047CC360020AC360020C4
:10BE500099BB020059BE020008B50B78032B06D02F
:10BE60000B4B1B78012B06D0022B0BD008BD084BC7
:10BE700000221A76F4E7064B1B7E002BF6D1FFF763
:10BE800079FFF3E70B78032BF0D1FFF775FEEDE7B1
:10BE9000AC36002000B585B0174BDB6818784FF63C
:10BEA000FF7203F58051184405F027FAF0B10246FD
:10BEB000114BD9680B780B44984219D00E4B5B7E1E
:10BEC00093B10E4B01208DF80000019203930423DF
:10BED00002930B4A694601F00FF958B90120064B4D
:10BEE000187605B05DF804FB064BEBE70120F8E798
:10BEF0000120F6E70020F4E7AC36002034470400C8
:10BF0000C83600203047040008B5104BDB681878AD
:10BF1000002203F58051184405F0EFF908B1012023
:10BF200008BD0A4BDA68137951795B1A03F57F2350
:10BF300003F6FF7302EB03339A4205D002F58052F9
:10BF4000024BDA600320EBE70220E9E7AC36002081
:10BF5000F0B585B0514BDD686A792B79591E8A425C
:10BF600014D005F580510C780C444D490968081D22
:10BF70000E7906449B1A05EB03356388013B9BB29F
:10BF800047F6FE62934260D927461BE00120434BEF
:10BF900058767EE07846FDF771FF16E027F47F6360
:10BFA00023F00F0303F580531A7813449D4247D9B9
:10BFB0009C4247D25A88013A92B21F4647F6FE6128
:10BFC0008A4210D93B88002BE4D03B8807EB8303DF
:10BFD00023F47F6222F00F029342DFD07A88B2F519
:10BFE000FE4FE3D1DAE71C462FE07846FDF746FF27
:10BFF00016E027F47F6323F00F0303F580531A78CC
:10C0000013449D4220D99C423BD25A88013A92B2B5
:10C010001F4647F6FE618A4210D93B88002BE4D0C8
:10C020003B8807EB830323F47F6222F00F029342E5
:10C03000DFD07A88B2F5FE4FE3D1DAE71C4604E0A0
:10C04000002402E0002400E00024E4B1144B19684D
:10C05000628801F58051304605F04FF9064690B1EF
:10C0600001200E4B18768DF8000001940D4B0393C0
:10C07000042302930C4A694601F03EF858B927465A
:10C08000CBE70024E1E7B4FA84F46409034B5C765F
:10C09000012005B0F0BD0020FBE700BFAC3600205A
:10C0A000CC3600202C470400C83600202DE9F04192
:10C0B00086B0644B1B6923B1624B5B692BB10027CF
:10C0C00048E07846FDF7DAFEF6E77846FDF7D6FE5B
:10C0D000F5E77846FDF7D2FE17E028F47F6323F0FA
:10C0E0000F0303F580531A7813449E421FD99C42D4
:10C0F00021D25A88013A92B2984647F6FE618A42A6
:10C1000013D9B8F80030002BE3D0B8F8003008EBB2
:10C11000830323F47F6222F00F029342DDD0B8F84C
:10C120000220B2F5FE4FE0D1D7E71C4600E0002424
:10C130001CB1009438E00024FAE700230093019B2F
:10C14000002B5AD10127002C76D0628847F6FF7366
:10C150009A4271D0002F73D13A4B5A6922F47F650D
:10C1600025F00F05AD1A05F580551C69DE68337999
:10C1700072799B1A06EB0336002301936388013B17
:10C180009BB247F6FE629342D3D9A046B9E7784600
:10C19000FDF774FE23E024F47F6424F00F0404F51B
:10C1A0008054237823441C46A642C8D92388019A88
:10C1B00002EB83029542C2D9009B634023F47F6364
:10C1C00023F00F03002BBAD16388013B9BB247F6E3
:10C1D000FE618B42B3D801922388002BD7D02388ED
:10C1E00004EB830323F47F6222F00F029342D2D048
:10C1F0006288B2F5FE4FD6D1CDE7124A52690120CE
:10C200008DF808000392009A059204930E4A02A941
:10C2100000F072FF70B90B49019B23F003024B69D8
:10C2200013444B6114B1074B1C618CE77846FDF752
:10C2300025FEF8E7002000E0012006B0BDE8F0810F
:10C240000120FAE7AC360020C836002000B585B0E2
:10C2500040F6F8731B68B3F1FF3F09D0B3F1FF3F1D
:10C260000CD07BB1B3F1FF3F37D0A3F580520FE084
:10C270001E4A1268B2F1FF3FF0D103E01B4A126878
:10C28000002AEFD14FF080514B690A6902FB03F29B
:10C29000A2F58052164B1A60164B1B6813F4801FD0
:10C2A00016D0154B1B68062B12DD144BD3F8043542
:10C2B00040F6F8710968B1F1FF3F13D00292019185
:10C2C0000F4A00924FF41A720E49072003F05CFBEC
:10C2D000FFF798FD05B05DF804FB044B1A68A2F562
:10C2E0008052D5E701490968E8E700BF1410001043
:10C2F000CC360020242E0020202E002000100140EB
:10C30000884404007144040010B50446B0B1104BD9
:10C310001B78BBB10E4BD968E3685879A3EB0032A8
:10C32000914211D31A79121A02F57F2202F6FF7296
:10C3300003EB0233994209D8012004E07846FDF767
:10C340009DFDE4E7002010BD0020FCE70020FAE797
:10C35000AC360020024B1878003018BF012070471F
:10C36000AC36002010B504460E4B1B7893B92378E9
:10C37000032B13D10B4B9C60E268DA6000225A60F9
:10C380001A76012018705A76074900F0A3FEFFF7CD
:10C39000F1FC10BD7846FDF771FDE8E77846FDF742
:10C3A0006DFDE7E7AC36002059BE0200014B18686E
:10C3B000704700BFCC36002010B5044680B16368DA
:10C3C0001BB123680BB1A36813B97846FDF756FD7E
:10C3D000A3685A1E134207D10023E360236110BDF6
:10C3E0007846FDF74BFDEAE77846FDF747FDF3E7B2
:10C3F00070B5F0B104468368EBB1EFF3108572B607
:10C400000369C068834210D0084621686268A66844
:10C41000013E334003FB021108B116F01AF82369FC
:10C42000013323614DB962B608E005B962B605254E
:10C4300004E00E2502E0092500E00025284670BD35
:10C44000C0F30B033BBB41B301F6FF71090B144B67
:10C450000222C3F80425124BD3F80034002BFAD083
:10C46000002202E000F5805001328A4208D20C4BD3
:10C47000C3F808050A4BD3F80034002BFAD0F1E7D3
:10C48000074B0022C3F80425054BD3F80034002BDA
:10C49000FAD000207047102070470920704700BF75
:10C4A00000E0014010F0030F2FD111F0030F2FD146
:10C4B00082B312F0030F2FD110B49208174B01244E
:10C4C000C3F80445154BD3F80034002BFAD002E032
:10C4D000043004312246541E52B10B68B3F1FF3FC1
:10C4E000F6D003600D4BD3F80034002BFAD0EFE701
:10C4F0000A4B0021C3F80415084BD3F80034002B75
:10C50000FAD010465DF8044B704710221046704771
:10C510001022FBE70922F9E70922F7E700E00140D2
:10C52000094B1B7813F0040F02D00378122B00D0B4
:10C530007047064B1A68064B5A60034B1A786FF324
:10C5400082021A70F4E700BF7837002068370020B5
:10C550000437002010B582B001900C46000C012871
:10C5600010D12368094A136009490B7843F001038D
:10C570000B705B0883F0010303F0010313710020CB
:10C5800002B010BD7846FDF779FCEAE76837002075
:10C590007837002010B582B001900C46000C0228BC
:10C5A0000FD12268094B1A6022791A710020587144
:10C5B0009871D871064A137843F00203137002B0E1
:10C5C00010BD7846FDF75AFCEBE700BF603700204E
:10C5D0007837002010B582B001900C46000C03287B
:10C5E00006D1054B186820601B79237102B010BD7D
:10C5F0007846FDF743FCF4E76837002010B582B0B9
:10C6000001900C46000C03280CD1084B20681860E0
:10C6100022791A71064A137843F00103137000203F
:10C6200002B010BD7846FDF729FCEEE76837002020
:10C630007837002010B582B001900C46000C042819
:10C6400005D1054B03CB2060616002B010BD784678
:10C65000FDF714FCF5E700BF6037002010B582B08D
:10C6600001900C46000C04280BD1084B206861682F
:10C6700003C3074A137843F002031370002002B08B
:10C6800010BD7846FDF7FAFBEFE700BF60370020EA
:10C690007837002000B583B00190000C032806D144
:10C6A000054B00221A601A7103B05DF804FB78464E
:10C6B000FDF7E4FBF4E700BF6837002000B583B066
:10C6C0000190000C042806D1054B00221A605A6024
:10C6D00003B05DF804FB7846FDF7D0FBF4E700BF3C
:10C6E0006037002000B585B0184B1B7813F0400F61
:10C6F0000FD0164B1B7813F0040F07D1144B5B6857
:10C7000003F500530193B3F1807F06D905B05DF8BE
:10C7100004FB7846FDF7B2FBEBE70E4B1B788DF878
:10C7200008300A4A137843F0040313700023ADF86D
:10C730000C300323ADF80E3001A9039805F0DEFE9E
:10C740000028E3D07846FDF799FBDFE77837002033
:10C75000043700207937002000B585B0002202920E
:10C760000F4B996801911B7B8DF808300D490B78B0
:10C770000133DBB20B708DF80B30ADF80C200423C5
:10C78000ADF80E300DEB0301039805F0B7FE10B9BC
:10C7900005B05DF804FB7846FDF770FBF8E700BFD5
:10C7A000043700207937002000B585B00F4B9A6818
:10C7B00001921A7B8DF808201B8AADF809300C4BCA
:10C7C0001B788DF80B300023ADF80C300423ADF846
:10C7D0000E300DEB0301039805F090FE10B905B083
:10C7E0005DF804FB7846FDF749FBF8E704370020C5
:10C7F0007937002000B58DB00B4B1B7B012B0ED081
:10C80000094A926804928DF80830039002238DF84B
:10C81000043001A8FEF73CFF0DB05DF804FB024AAE
:10C820009268013A0492EEE70437002008B51D48EB
:10C830001D4B036000F0C8FE1C4B1B7813F0200F4B
:10C840002AD103F00303032B14D1194B1968194A99
:10C85000916019791173B3F805001082DB79164ADB
:10C860001370164A1279934217D0B1B9114B0022B6
:10C870001A6007E00F4B00221A609A601A731A823E
:10C88000FFF76AFF0B4B1A685A60084A137843F0A7
:10C8900040031370FFF726FF08BD084B1A68054BCD
:10C8A0001A60EFE75437002021C5020078370020D6
:10C8B00060370020043700207937002068370020D7
:10C8C00010B582B00024ADF800400123ADF802306D
:10C8D000009805F044FEADF804400223ADF80630A0
:10C8E000019805F03CFE02B010BD000008B5002024
:10C8F00005F05CFE084B00221A605A609A60DA600C
:10C900001A61064A137803F0DF0343F04003137003
:10C91000FFF7E8FE08BD00BF04370020783700208D
:10C9200038B50C4D00242C606C60AC60EC602C6160
:10C9300001F014F9084B5860084A9A60084ADA6016
:10C940001C615C61074B1A7864F3C3021A706C6057
:10C9500038BD00BF04370020E0360020C1CA020005
:10C96000008793037837002008B50C4B1B7813F031
:10C97000100F00D008BD0A480A4B036000F024FEE7
:10C98000FFF754FFFFF79CFF074801F07FF8034AC9
:10C99000137843F010031370ECE700BF78370020E2
:10C9A000F836002019CC0200E0360020034B18783E
:10C9B000800880F0010000F0010070477837002007
:10C9C00010B501F039FE174B1B7B1BBB154B9B7B36
:10C9D0002BBB144B1A8A41F282639A4206D8124B3F
:10C9E0001B7813F0080F05D0012300E001231BB9C9
:10C9F000082410E00023FAE70A4B01221A730024EE
:10CA00001C829A6801329A60FFF7A6FE2046FFF763
:10CA1000F1FE00E0082401F053FE204610BD08247A
:10CA2000F9E700BF043700207837002010B501F087
:10CA300003FE214B5B7BABB11F4B9B7B03BB1E4BB0
:10CA40001A8A41F282639A4206D81C4B1B7813F073
:10CA5000080F05D0012300E001239BB1012302E070
:10CA60000023FAE700231C460BB3134B00225A7332
:10CA70001B7B4BB1012B0ED07846FDF7FFF916E07A
:10CA80000023F0E70023EEE7FFF79AFF78B178463E
:10CA9000FDF7F4F90BE0084B00201860586018739C
:10CAA0001882FFF7A7FEFFF757FEFFF71BFE01F006
:10CAB00007FE204610BD00BF043700207837002055
:10CAC00008B52C4B1B7BDBB1012B2ED07846FDF734
:10CAD000D5F9284A138A01339BB21382264AA2FB56
